:1000000053EF07F0F76A140FF66E000EF72209009F
:10001000F5501200280C0106202056656C2E204D4C
:10002000616E75616C20202000002056656C2E20CA
:1000300046616E3A202569252520200023202020B6
:1000400020202020204D6F646F204D616E75616C03
:10005000206174697661646F212020202020202097
:1000600020230A00232D2D2D2D2D2D2D2D2D2D2D31
:100070002D2D2D2D2D2D2D2D2D2D2D2D2D2D2D2DB0
:100080002D2D2D2D2D2D2D2D2D230A0023205665B0
:100090006C6F63696461646520436F6F6C65723A6D
:1000A0002025692525202000232323232323232300
:1000B0002323232323232323232323232323232310
:1000C00023232323232323232323232323230A003C
:1000D00009202053697374656D612064650900000F
:1000E00009092020526573667269616D656E746FCF
:1000F0000000232323232323232323232323232316
:1001000023232323232323232323232323232323BF
:1001100023232323232323230A00232053697374D7
:10012000656D6120646520526573667269616D65F5
:100130006E746F206175746F6D617469636F2023D5
:100140000A002323232323232323232323232323BB
:10015000232323232323232323232323232323236F
:1001600023232323232323230A00232020202020AA
:10017000202020496E696369616E646F206F20736F
:10018000697374656D612E2E2E202020202020237F
:100190000A00232D2D2D2D2D2D2D2D2D2D2D2D2DE9
:1001A0002D2D2D2D2D2D2D2D2D2D2D2D2D2D2D2D7F
:1001B0002D2D2D2D2D2D2D230A002054656D702EF3
:1001C0003A2020252E306620256343200000202081
:1001D00056656C2E2046616E3A2020256925252023
:1001E0002000232054656D70657261747572613AE8
:1001F000202566200A00232D2D2D2D2D2D2D2D2D72
:100200002D2D2D2D2D2D2D2D2D2D2D2D2D2D2D2D1E
:100210002D2D2D2D2D2D2D2D2D2D2D230A0023207F
:1002200056656C6F63696461646520636F6F6C65AC
:10023000723A202569252520200A00002323232344
:10024000232323232323232323232323232323237E
:10025000232323232323232323232323232323236E
:1002600023230A00EA6A200EE96EEF500DE0060E25
:10027000016E006A002EFED7012EFBD77B0E006EAA
:10028000002EFED7EF2EF3D7120027B002D08C98A5
:1002900001D08C88959827B202D08C9A01D08C8A94
:1002A000959A27B402D08C9C01D08C8C959C27B653
:1002B00002D08C9E01D08C8E959E000096928D82ED
:1002C000020E006E002EFED700D0000096928D9296
:1002D000120096948D94630E006E002EFED700D00F
:1002E000245203E096948D8402D096948D9400005D
:1002F00096928D922538266E0F0E261626C027F070
:10030000C4DF25500F0B266E276EBFDF12009694B8
:100310008D9496928D920F0E206EA4DF116A11506B
:10032000020808E3030E276EB0DF050E206E9ADF89
:10033000112AF5D7020E276EA8DF116A11500308A3
:1003400011E3036A1150F2CF12F0F29E5BDE12BE8F
:10035000F28E126E246A256EBCDF050E206E82DFDF
:10036000112AECD776EF07F0036A0850040FE96E04
:10037000000E0320EA6EEFCF22F0010E205C222651
:1003800022508009236E246A256EA3DF12001F50BD
:100390000C0A05E0060A0CE0020A11E015D0246AF6
:1003A000010E256E96DF086A020E206E5BDF11D00B
:1003B000082A010E206E08C021F0D6DF0AD0246A78
:1003C000100E256E86DF05D0010E246E1FC025F0AD
:1003D00080DF12000900F5520CE0F6CF19F0F7CFDC
:1003E0001AF0F5CF1FF0D3DF19C0F6FF1AC0F7FFE0
:1003F000F1D712000900F5520DE0F6CF19F0F7CF52
:100400001AF0F5509EA8FED7AD6E19C0F6FF1AC0BF
:10041000F7FFF0D71200B60E006E036A026A016A97
:1004200019501A101B101C1002E1006A0DD0D89050
:1004300001BE09D019361A361B361C360336023671
:100440000136002EF4D7019ED3EF02F01E50D8B42F
:1004500071D0006E2250D8B46DD0002604E3810E16
:10046000002668E204D07F0E005E64E363E01FC0F4
:1004700026F02350261A1F8E238E21502502F4CFFA
:1004800028F020502402F4CF03F0F3CF27F0250208
:10049000F3502826F4502722000E03222150240274
:1004A000F3502826F4502722000E026A032202226B
:1004B0001F502502F3502726F4500322000E02227B
:1004C0001F502402F3500326F4500222000E016A4A
:1004D000012221502302F3502726F4500322000E5C
:1004E0000222012220502302F3500326F45002225C
:1004F000000E01221F502302F3500226F450012265
:10050000002A01BE05D02736033602360136000622
:10051000000E27AE0AD0032A02220122015005E173
:10052000025003E1035001E1002A26BE018E26AEEF
:10053000019E04D0006A016A026A036A12001E501A
:10054000B6081E6E036A1FC022F01F8ED8901F329D
:100550002032213203320232013200321E2EF6D70F
:1005600022AE0BD0001E011E021E031E002AD8B4AC
:10057000012AD8B4022AD8B4032A1200C282C2B215
:10058000FED7C3CF11F0C4CF12F0136A146A0A0E5B
:10059000206E68DE14C01CF013C01BF012C01AF0ED
:1005A00011C019F038D703C021F002C020F001C0FB
:1005B0001FF000C01EF00C0E256E320E246E480E89
:1005C000236E7B0E226E42DF03C021F002C020F0BA
:1005D00001C01FF000C01EF0B2DF03C018F002C05F
:1005E00017F001C016F000C015F015C001F0CCEFF7
:1005F00007F08E0E006E1AC001F019C002F0036AF7
:10060000015209E102C001F0026A080E005E0152C7
:1006100002E1006A08D0D89001BE04D0023601364B
:100620000006F9D7019E12000900F6CF1AF0F7CFA5
:100630001BF0F5CF1FF0ABDE1AC0F6FF1BC0F7FFB3
:10064000192EF2D712002050016A1F5C03E21FC06E
:1006500000F00CD0006A080E216E1F3600362050C4
:10066000005CD8B0006E0136212EF7D71200200EA4
:100670001AA8300E1B6E19C000F019AE08D0001E6B
:10068000002A00C019F02D0E1B6E1A8E1A80015020
:1006900019C01FF0640E206ED6DF00C019F0300EB6
:1006A00001241C6E19C01FF00A0E206ECCDF300E24
:1006B00000241E6E300E01241D6E1BC000F0300E93
:1006C0001C5C04E01A821ABE1A8412D01BC01CF0F3
:1006D000200E1B6E300E1D5C04E01A801ABE1A82BA
:1006E00007D0D8A41A8004E11CC01DF0200E1C6E97
:1006F0001AB405D01AB206D01AB007D009D01BC060
:100700001FF045DE1CC01FF042DE1DC01FF03FDEA3
:100710001EC01FF03CDE12000900F6CF1AF0F7CF22
:100720001BF0F5509EA8FED7AD6E1AC0F6FF1BC099
:10073000F7FF192EF1D71200200E1AA8300E1B6EEB
:1007400019C000F019AE08D0001E002A00C019F030
:100750002D0E1B6E1A8E1A80015019C01FF0640EE8
:10076000206E71DF00C019F0300E01241C6E19C01C
:100770001FF00A0E206E67DF300E00241E6E300E52
:1007800001241D6E1BC000F0300E1C5C04E01A82B8
:100790001ABE1A8412D01BC01CF0200E1B6E300E25
:1007A0001D5C04E01A801ABE1A8207D0D8A41A80F1
:1007B00004E11CC01DF0200E1C6E1AB405D01AB244
:1007C00007D01AB009D00CD01B509EA8FED7AD6E32
:1007D0001C509EA8FED7AD6E1D509EA8FED7AD6ED4
:1007E0001E509EA8FED7AD6E12008E0E006E1950E0
:1007F000005E1AC002F01BC001F0028E005209E038
:10080000D890025202E1015204E002320132002E7D
:10081000F7D71AAE05D0011E021E012AD8B4022A4B
:1008200012001950D8B4A5D0256E1D50D8B4A1D04F
:10083000255E05E37F0E2526D8B09BD006D0810E1D
:10084000255ED8A096D0D8B494D025C000F0016A17
:10085000026A036A246A1AC023F0238E1BC022F0A6
:100860001CC021F0190E256E2050215E0DE2010EF4
:10087000225E0AE2235E08E2245E06E2242A232A9C
:10088000222A2050212628D01F50225E12E2010E7B
:10089000235E0FE2245E0DE2242A232A1F50222623
:1008A0002050212619E3222A17E1232A15E1242AC0
:1008B00013D01E508009235E0EE2010E245E0BE26F
:1008C000242A1E50800923261F502226E9E3232ACA
:1008D000E7E1242AE5D70380252E01D00BD0D8905C
:1008E0002136223623362436D89003360236013696
:1008F0002636BAD726A006D0D8900132023203326B
:10090000263202D0000635E026BE1ED0D890213611
:100910002236233624362050215E07E2010E225E65
:1009200004E2235E02E2245E1AE31F50225E05E227
:10093000010E235E02E2245E12E31E508009235E54
:1009400003E2010E245E0BE3032A09E1022A07E118
:10095000012A05E1002A0DE00132023203321AC0F9
:1009600025F01E50251A25AE02D0018E06D0019E1C
:1009700004D0006A016A026A036A79EF05F0938085
:1009800081B004D00970C80E206E6CDC09B027D08D
:10099000185208E1175206E1165204E115503108C9
:1009A00001E30B6A185207E1175205E1165203E101
:1009B0001550310814E2320E155C196E000E1658EF
:1009C0001A6E000E17581B6E000E18581C6ED89029
:1009D0001934006E1A341B341C3400C00BF009A00B
:1009E00055D0010E206E020E216EBEDC180EF66E82
:1009F000000EF76EEFDC2A0EF66E000EF76E0B0E91
:100A0000196E12DE0BC019F0180E1A6E30DE250EAC
:100A10001F6EBDDC200E1F6EBADC200E1F6EB7DC11
:100A20000A3C27D03C0EF66E000EF76EE3DC640E37
:100A3000F66E000EF76EDEDC8C0EF66E000EF76EB4
:100A4000150E196E69DE0BC019F0180E1A6E74DEE1
:100A5000250E9EA8FED7AD6E200E9EA8FED7AD6EC9
:100A6000200E9EA8FED7AD6EA80EF66E000EF76E95
:100A7000C1DC938281B20AD00A0E0B260B506408A7
:100A800001E20B6AC80E206E32EC01F01A6A0BC04C
:100A900019F0AFDD03C021F002C020F001C01FF04B
:100AA00000C01EF0256A246A200E236E800E226E7E
:100AB000CDDC03C01CF002C01BF001C01AF000C066
:100AC00019F093DE01C00BF00BC0BEFF1A6A0BC019
:100AD00019F08FDD03C01CF002C01BF001C01AF03A
:100AE00000C019F0206A1F6A200E1E6E800E1D6E57
:100AF00098D603C01CF002C01BF001C01AF000C061
:100B000019F073DE01C00BF00BC001F0F4EF07F039
:100B1000D8B203D0EA6A260EE96E006A016A026A58
:100B2000036A266A276A286A296A25502410231036
:100B300022102CE0200E2A6ED8901E361F3620364A
:100B4000213626362736283629362550295C08E1F5
:100B50002450285C05E12350275C02E12250265CEA
:100B60000FE32250265E2350D8A0233C275E24505A
:100B7000D8A0243C285E2550D8A0253C295ED880EA
:100B800000360136023603362A2ED6D726C0EFFFAE
:100B900027C0ECFF28C0ECFF29C0ECFF1200E95091
:100BA000166E1550186E19E014C021F013C020F015
:100BB00012C01FF011C01EF0256A246A200E236E99
:100BC000820E226E43DC03C014F002C013F001C099
:100BD00012F000C011F0182EE7D714C021F013C096
:100BE00020F012C01FF011C01EF0A9DC03C014F0E9
:100BF00002C013F001C012F000C011F014AE0DD00D
:100C00001606168A111E121E131E141E112AD8B49F
:100C1000122AD8B4132AD8B4142A3B0E1D6E9A0E89
:100C20001C6ECA0E1B6E1A6A0A0E186E1550D8B4C6
:100C3000162AD882EA6A110EE96E14C021F013C098
:100C400020F012C01FF011C01EF01DC025F01CC006
:100C500024F01BC023F01AC022F05ADF01500052CA
:100C60000FE11528185C0CE016500CE00F0B185C17
:100C700001E03BE216BE39D016BC04D0200E30D0C5
:100C8000200E161616AA0DD0169A1550D8A41606C0
:100C90000050166E2D0E1F6EC7EC01F01650006E40
:100CA000166A1550185C0BE10050166E2E0E1F6E62
:100CB000C7EC01F01650006E200E1616000E300E16
:100CC00016AA0ED0169A1550D8A416060050166E05
:100CD0002D0E1F6EC7EC01F01650006E166A300E16
:100CE000002600C01FF0C7EC01F0D8921DC021F013
:100CF0001CC020F01BC01FF01AC01EF0256A246A19
:100D0000236A0A0E226E04DF03C01DF002C01CF02D
:100D100001C01BF000C01AF0182E8BD711EF08F09D
:100D2000E950166E1550186E1AE014C021F013C069
:100D300020F012C01FF011C01EF0256A246A200E98
:100D4000236E820E226E26EC02F003C014F002C065
:100D500013F001C012F000C011F0182EE6D714C035
:100D600021F013C020F012C01FF011C01EF09FEC44
:100D700002F003C014F002C013F001C012F000C072
:100D800011F014AE0DD01606168A111E121E131E77
:100D9000141E112AD8B4122AD8B4132AD8B4142A8B
:100DA0003B0E1D6E9A0E1C6ECA0E1B6E1A6A0A0E40
:100DB000186E1550D8B4162AD882EA6A110EE96E58
:100DC00014C021F013C020F012C01FF011C01EF09B
:100DD0001DC025F01CC024F01BC023F01AC022F057
:100DE00097DE015000520FE11528185C0CE01650F8
:100DF0000CE00F0B185C01E03BE216BE39D016BCCC
:100E000004D0200E30D0200E161616AA0DD0169A39
:100E10001550D8A416060050166E2D0E9EA8FED7AB
:100E2000AD6E1650006E166A1550185C0BE100503E
:100E3000166E2E0E9EA8FED7AD6E1650006E200EBA
:100E40001616000E300E16AA0ED0169A1550D8A4FB
:100E500016060050166E2D0E9EA8FED7AD6E1650CB
:100E6000006E166A300E002600509EA8FED7AD6EAA
:100E7000D8921DC021F01CC020F01BC01FF01AC06A
:100E80001EF0256A246A236A0A0E226E41DE03C020
:100E90001DF002C01CF001C01BF000C01AF0182E9B
:100EA0008BD752EF08F0F86AD09EB886080EAF6E66
:100EB000020EB06EA60EAC6E900EAB6E086AC150FC
:100EC000C00B0F09C16E070EB46E046A400E056EAA
:100ED000100E066E500E076E0B6AF19E956A8C6AB4
:100EE000FF0E936E000E956E87EF01F0010E206EDF
:100EF000030E216EB4EC01F0D00EF66E000EF76E0C
:100F0000EAEC01F0E00EF66E000EF76EEAEC01F08E
:100F1000F20EF66E000EF76EFAEC01F01A0EF66E97
:100F2000010EF76EFAEC01F0420EF66E010EF76E4E
:100F3000FAEC01F06A0EF66E010EF76EFAEC01F0B3
:100F4000080E116EFA0E206E32EC01F0112EFAD757
:100F5000920EF66E010EF76EFAEC01F0C150C00B66
:100F60000E09C16EC050C00B0709C06EC08EC28092
:100F7000000E016EC250C30B0110C26E94948B948C
:100F80000C0EBD6EB76AB66A000E0509CA6EF90E80
:100F9000CB6E106ABEEF02F01A6A01C019F0F9ECCC
:100FA00002F003C00FF002C00EF001C00DF000C04F
:100FB0000CF00FC021F00EC020F00DC01FF00CC0CF
:100FC0001EF09FEC02F003C014F002C013F001C049
:100FD00012F000C011F003C018F002C017F001C0F9
:100FE00016F000C015F0CBD401C010F009B089D0C4
:100FF000010E206E216EB4EC01F0BA0EF66E010EF9
:10100000F76E090E196E14EC03F0890EE96E0FC02D
:1010100014F00EC013F00DC012F00CC011F0156AE0
:10102000BED5200E1F6EC7EC01F0DF0E1F6EC7ECA1
:1010300001F0430E1F6EC7EC01F0200E1F6EC7ECCF
:1010400001F0CE0EF66E010EF76E0D0E196E14EC59
:1010500003F010C019F0180E1A6E37EC03F0250ECD
:101060001F6EC7EC01F0200E1F6EC7EC01F0200EC2
:101070001F6EC7EC01F00A3C44D0E20EF66E010E82
:10108000F76E0F0E196E8CEC03F0890EE96E0FC02F
:1010900014F00EC013F00DC012F00CC011F0020ECF
:1010A000156E3ED6200E9EA8FED7AD6E0A0E9EA8E7
:1010B000FED7AD6EF60EF66E010EF76EFAEC01F08D
:1010C0001E0EF66E020EF76E150E196E8CEC03F006
:1010D00010C019F0180E1A6E9CEC03F0250E9EA895
:1010E000FED7AD6E370EF66E020EF76E030E196E5A
:1010F0008CEC03F03C0EF66E020EF76EFAEC01F08B
:081100000A6A0A2A47D703001E
:020000040030CA
:0E00000024CC3E1E0087A1000FC00FE00F4071
:00000001FF
;PIC18F4550
;CRC=4D69  CREATED="29-ago-21 20:38"
